{
  "contractName": "IdentityManagement",
  "abi": [
    {
      "constant": true,
      "inputs": [],
      "name": "identityCount",
      "outputs": [
        {
          "name": "",
          "type": "uint256"
        }
      ],
      "payable": false,
      "stateMutability": "view",
      "type": "function",
      "signature": "0x38678ba5"
    },
    {
      "constant": true,
      "inputs": [
        {
          "name": "",
          "type": "uint256"
        }
      ],
      "name": "addressList",
      "outputs": [
        {
          "name": "",
          "type": "address"
        }
      ],
      "payable": false,
      "stateMutability": "view",
      "type": "function",
      "signature": "0xb810fb43"
    },
    {
      "constant": true,
      "inputs": [
        {
          "name": "",
          "type": "address"
        }
      ],
      "name": "identities",
      "outputs": [
        {
          "name": "id",
          "type": "uint256"
        },
        {
          "name": "hash",
          "type": "string"
        }
      ],
      "payable": false,
      "stateMutability": "view",
      "type": "function",
      "signature": "0xf653b81e"
    },
    {
      "inputs": [],
      "payable": false,
      "stateMutability": "nonpayable",
      "type": "constructor",
      "signature": "constructor"
    },
    {
      "anonymous": false,
      "inputs": [
        {
          "indexed": false,
          "name": "owner",
          "type": "address"
        },
        {
          "indexed": false,
          "name": "id",
          "type": "uint256"
        },
        {
          "indexed": false,
          "name": "hash",
          "type": "string"
        }
      ],
      "name": "IdentityCreated",
      "type": "event",
      "signature": "0x296bc27d402fcafd917ad0c965398f24239b22940ed5da6f784f4bd4751a228a"
    },
    {
      "constant": false,
      "inputs": [
        {
          "name": "_hash",
          "type": "string"
        }
      ],
      "name": "createIdentity",
      "outputs": [],
      "payable": false,
      "stateMutability": "nonpayable",
      "type": "function",
      "signature": "0x42ade784"
    },
    {
      "constant": true,
      "inputs": [
        {
          "name": "_address",
          "type": "address"
        }
      ],
      "name": "isAddressAdded",
      "outputs": [
        {
          "name": "",
          "type": "bool"
        }
      ],
      "payable": false,
      "stateMutability": "view",
      "type": "function",
      "signature": "0x72a28289"
    }
  ],
  "bytecode": "0x60806040526000805534801561001457600080fd5b5060408051808201909152600481527f3078303000000000000000000000000000000000000000000000000000000000602082015261005b90640100000000610060810204565b6102c1565b610072336401000000006101c7810204565b15156100ba576001805480820182556000919091527fb10e2d527612073b26eecdfd717e6a320cf44b4afac2b0732d9fcbe2b7fa0cf6018054600160a060020a031916331790555b6000805460019081018083556040805180820182529182526020808301868152338652600282529190942082518155905180519294919361010393908501929190910190610226565b509050507f296bc27d402fcafd917ad0c965398f24239b22940ed5da6f784f4bd4751a228a33600054836040518084600160a060020a0316600160a060020a0316815260200183815260200180602001828103825283818151815260200191508051906020019080838360005b83811015610188578181015183820152602001610170565b50505050905090810190601f1680156101b55780820380516001836020036101000a031916815260200191505b5094505050505060405180910390a150565b6000805b60015481101561021b5782600160a060020a03166001828154811015156101ee57fe5b600091825260209091200154600160a060020a03161415610213576001915050610221565b6001016101cb565b50600090505b919050565b828054600181600116156101000203166002900490600052602060002090601f016020900481019282601f1061026757805160ff1916838001178555610294565b82800160010185558215610294579182015b82811115610294578251825591602001919060010190610279565b506102a09291506102a4565b5090565b6102be91905b808211156102a057600081556001016102aa565b90565b6105ea806102d06000396000f3fe608060405260043610610066577c0100000000000000000000000000000000000000000000000000000000600035046338678ba5811461006b57806342ade7841461009257806372a2828914610147578063b810fb431461018e578063f653b81e146101d4575b600080fd5b34801561007757600080fd5b50610080610286565b60408051918252519081900360200190f35b34801561009e57600080fd5b50610145600480360360208110156100b557600080fd5b8101906020810181356401000000008111156100d057600080fd5b8201836020820111156100e257600080fd5b8035906020019184600183028401116401000000008311171561010457600080fd5b91908080601f01602080910402602001604051908101604052809392919081815260200183838082843760009201919091525092955061028c945050505050565b005b34801561015357600080fd5b5061017a6004803603602081101561016a57600080fd5b5035600160a060020a03166103f7565b604080519115158252519081900360200190f35b34801561019a57600080fd5b506101b8600480360360208110156101b157600080fd5b5035610456565b60408051600160a060020a039092168252519081900360200190f35b3480156101e057600080fd5b50610207600480360360208110156101f757600080fd5b5035600160a060020a031661047e565b6040518083815260200180602001828103825283818151815260200191508051906020019080838360005b8381101561024a578181015183820152602001610232565b50505050905090810190601f1680156102775780820380516001836020036101000a031916815260200191505b50935050505060405180910390f35b60005481565b610295336103f7565b15156102ea576001805480820182556000919091527fb10e2d527612073b26eecdfd717e6a320cf44b4afac2b0732d9fcbe2b7fa0cf601805473ffffffffffffffffffffffffffffffffffffffff1916331790555b6000805460019081018083556040805180820182529182526020808301868152338652600282529190942082518155905180519294919361033393908501929190910190610523565b509050507f296bc27d402fcafd917ad0c965398f24239b22940ed5da6f784f4bd4751a228a33600054836040518084600160a060020a0316600160a060020a0316815260200183815260200180602001828103825283818151815260200191508051906020019080838360005b838110156103b85781810151838201526020016103a0565b50505050905090810190601f1680156103e55780820380516001836020036101000a031916815260200191505b5094505050505060405180910390a150565b6000805b60015481101561044b5782600160a060020a031660018281548110151561041e57fe5b600091825260209091200154600160a060020a03161415610443576001915050610451565b6001016103fb565b50600090505b919050565b600180548290811061046457fe5b600091825260209091200154600160a060020a0316905081565b60026020818152600092835260409283902080546001808301805487519281161561010002600019011695909504601f81018590048502820185019096528581529094919390929091908301828280156105195780601f106104ee57610100808354040283529160200191610519565b820191906000526020600020905b8154815290600101906020018083116104fc57829003601f168201915b5050505050905082565b828054600181600116156101000203166002900490600052602060002090601f016020900481019282601f1061056457805160ff1916838001178555610591565b82800160010185558215610591579182015b82811115610591578251825591602001919060010190610576565b5061059d9291506105a1565b5090565b6105bb91905b8082111561059d57600081556001016105a7565b9056fea165627a7a7230582054b2c83d442ef021006f837c8cd4546714a2e09e09de379e371f22f48924dbfe0029",
  "source": "pragma solidity ^0.5.0;\n\ncontract IdentityManagement {\n    uint public identityCount = 0;\n    address[] public addressList;\n\n    struct Identity {\n        uint id;\n        string hash;\n        // string email;\n    }\n\n    mapping(address => Identity) public identities;\n    \n    constructor() public {\n        createIdentity(\"0x00\");  \n    }\n\n    event IdentityCreated (\n        address owner,\n        uint id,\n        string hash\n        // string email\n    );\n    \n    // function createIdentity(string memory _name, string memory _email) public {\n\n    //     if(!isAddressAdded(msg.sender)) {\n    //         addressList.push(msg.sender);\n    //     }\n\n    //     identityCount ++;\n    //     identities[msg.sender] = Identity(identityCount, _name, _email);\n    //     emit IdentityCreated(msg.sender, identityCount, _name, _email);\n    // }\n\n    function createIdentity(string memory _hash) public {\n    \n        if(!isAddressAdded(msg.sender)) {\n            addressList.push(msg.sender);\n        }\n\n        identityCount ++;\n        identities[msg.sender] = Identity(identityCount, _hash);\n        emit IdentityCreated(msg.sender, identityCount, _hash);\n    }\n\n    function isAddressAdded(address _address) public view returns (bool) {\n        for (uint i = 0; i < addressList.length; i++) {\n            if (addressList[i] == _address) {\n                return true;\n            }\n        }\n        return false;\n    }\n}",
  "sourcePath": "/Users/harman/Main Folder/Mission MS/Coursework/Fall 23/Security/Project/dapp-eth-dim/contracts/IdentityManagement.sol",
  "compiler": {
    "name": "solc",
    "version": "0.5.1+commit.c8a2cb62.Emscripten.clang"
  },
  "schemaVersion": "3.0.1",
  "updatedAt": "2023-12-03T22:22:59.623Z",
  "devdoc": {
    "methods": {}
  },
  "userdoc": {
    "methods": {}
  }
}